{
    "_format": "hh-sol-artifact-1",
    "contractName": "RoboPunksNFT",
    "sourceName": "contracts/RoboPunksNFT.sol",
    "abi": [
        {
            "inputs": [],
            "stateMutability": "payable",
            "type": "constructor"
        },
        {
            "anonymous": false,
            "inputs": [
                {
                    "indexed": true,
                    "internalType": "address",
                    "name": "owner",
                    "type": "address"
                },
                {
                    "indexed": true,
                    "internalType": "address",
                    "name": "approved",
                    "type": "address"
                },
                {
                    "indexed": true,
                    "internalType": "uint256",
                    "name": "tokenId",
                    "type": "uint256"
                }
            ],
            "name": "Approval",
            "type": "event"
        },
        {
            "anonymous": false,
            "inputs": [
                {
                    "indexed": true,
                    "internalType": "address",
                    "name": "owner",
                    "type": "address"
                },
                {
                    "indexed": true,
                    "internalType": "address",
                    "name": "operator",
                    "type": "address"
                },
                {
                    "indexed": false,
                    "internalType": "bool",
                    "name": "approved",
                    "type": "bool"
                }
            ],
            "name": "ApprovalForAll",
            "type": "event"
        },
        {
            "anonymous": false,
            "inputs": [
                {
                    "indexed": true,
                    "internalType": "address",
                    "name": "previousOwner",
                    "type": "address"
                },
                {
                    "indexed": true,
                    "internalType": "address",
                    "name": "newOwner",
                    "type": "address"
                }
            ],
            "name": "OwnershipTransferred",
            "type": "event"
        },
        {
            "anonymous": false,
            "inputs": [
                {
                    "indexed": true,
                    "internalType": "address",
                    "name": "from",
                    "type": "address"
                },
                {
                    "indexed": true,
                    "internalType": "address",
                    "name": "to",
                    "type": "address"
                },
                {
                    "indexed": true,
                    "internalType": "uint256",
                    "name": "tokenId",
                    "type": "uint256"
                }
            ],
            "name": "Transfer",
            "type": "event"
        },
        {
            "inputs": [
                {
                    "internalType": "address",
                    "name": "to",
                    "type": "address"
                },
                {
                    "internalType": "uint256",
                    "name": "tokenId",
                    "type": "uint256"
                }
            ],
            "name": "approve",
            "outputs": [],
            "stateMutability": "nonpayable",
            "type": "function"
        },
        {
            "inputs": [
                {
                    "internalType": "address",
                    "name": "owner",
                    "type": "address"
                }
            ],
            "name": "balanceOf",
            "outputs": [
                {
                    "internalType": "uint256",
                    "name": "",
                    "type": "uint256"
                }
            ],
            "stateMutability": "view",
            "type": "function"
        },
        {
            "inputs": [
                {
                    "internalType": "uint256",
                    "name": "tokenId",
                    "type": "uint256"
                }
            ],
            "name": "getApproved",
            "outputs": [
                {
                    "internalType": "address",
                    "name": "",
                    "type": "address"
                }
            ],
            "stateMutability": "view",
            "type": "function"
        },
        {
            "inputs": [
                {
                    "internalType": "address",
                    "name": "owner",
                    "type": "address"
                },
                {
                    "internalType": "address",
                    "name": "operator",
                    "type": "address"
                }
            ],
            "name": "isApprovedForAll",
            "outputs": [
                {
                    "internalType": "bool",
                    "name": "",
                    "type": "bool"
                }
            ],
            "stateMutability": "view",
            "type": "function"
        },
        {
            "inputs": [],
            "name": "isPublicMintEnabled",
            "outputs": [
                {
                    "internalType": "bool",
                    "name": "",
                    "type": "bool"
                }
            ],
            "stateMutability": "view",
            "type": "function"
        },
        {
            "inputs": [],
            "name": "maxSupply",
            "outputs": [
                {
                    "internalType": "uint256",
                    "name": "",
                    "type": "uint256"
                }
            ],
            "stateMutability": "view",
            "type": "function"
        },
        {
            "inputs": [
                {
                    "internalType": "uint256",
                    "name": "quantity_",
                    "type": "uint256"
                }
            ],
            "name": "mint",
            "outputs": [],
            "stateMutability": "payable",
            "type": "function"
        },
        {
            "inputs": [],
            "name": "mintPrice",
            "outputs": [
                {
                    "internalType": "uint256",
                    "name": "",
                    "type": "uint256"
                }
            ],
            "stateMutability": "view",
            "type": "function"
        },
        {
            "inputs": [],
            "name": "name",
            "outputs": [
                {
                    "internalType": "string",
                    "name": "",
                    "type": "string"
                }
            ],
            "stateMutability": "view",
            "type": "function"
        },
        {
            "inputs": [],
            "name": "owner",
            "outputs": [
                {
                    "internalType": "address",
                    "name": "",
                    "type": "address"
                }
            ],
            "stateMutability": "view",
            "type": "function"
        },
        {
            "inputs": [
                {
                    "internalType": "uint256",
                    "name": "tokenId",
                    "type": "uint256"
                }
            ],
            "name": "ownerOf",
            "outputs": [
                {
                    "internalType": "address",
                    "name": "",
                    "type": "address"
                }
            ],
            "stateMutability": "view",
            "type": "function"
        },
        {
            "inputs": [],
            "name": "renounceOwnership",
            "outputs": [],
            "stateMutability": "nonpayable",
            "type": "function"
        },
        {
            "inputs": [
                {
                    "internalType": "address",
                    "name": "from",
                    "type": "address"
                },
                {
                    "internalType": "address",
                    "name": "to",
                    "type": "address"
                },
                {
                    "internalType": "uint256",
                    "name": "tokenId",
                    "type": "uint256"
                }
            ],
            "name": "safeTransferFrom",
            "outputs": [],
            "stateMutability": "nonpayable",
            "type": "function"
        },
        {
            "inputs": [
                {
                    "internalType": "address",
                    "name": "from",
                    "type": "address"
                },
                {
                    "internalType": "address",
                    "name": "to",
                    "type": "address"
                },
                {
                    "internalType": "uint256",
                    "name": "tokenId",
                    "type": "uint256"
                },
                {
                    "internalType": "bytes",
                    "name": "data",
                    "type": "bytes"
                }
            ],
            "name": "safeTransferFrom",
            "outputs": [],
            "stateMutability": "nonpayable",
            "type": "function"
        },
        {
            "inputs": [
                {
                    "internalType": "address",
                    "name": "operator",
                    "type": "address"
                },
                {
                    "internalType": "bool",
                    "name": "approved",
                    "type": "bool"
                }
            ],
            "name": "setApprovalForAll",
            "outputs": [],
            "stateMutability": "nonpayable",
            "type": "function"
        },
        {
            "inputs": [
                {
                    "internalType": "string",
                    "name": "baseTokenUri_",
                    "type": "string"
                }
            ],
            "name": "setBaseToken",
            "outputs": [],
            "stateMutability": "nonpayable",
            "type": "function"
        },
        {
            "inputs": [
                {
                    "internalType": "bool",
                    "name": "isPublicMintEnabled_",
                    "type": "bool"
                }
            ],
            "name": "setIsPUblicMintEnabled",
            "outputs": [],
            "stateMutability": "nonpayable",
            "type": "function"
        },
        {
            "inputs": [
                {
                    "internalType": "bytes4",
                    "name": "interfaceId",
                    "type": "bytes4"
                }
            ],
            "name": "supportsInterface",
            "outputs": [
                {
                    "internalType": "bool",
                    "name": "",
                    "type": "bool"
                }
            ],
            "stateMutability": "view",
            "type": "function"
        },
        {
            "inputs": [],
            "name": "symbol",
            "outputs": [
                {
                    "internalType": "string",
                    "name": "",
                    "type": "string"
                }
            ],
            "stateMutability": "view",
            "type": "function"
        },
        {
            "inputs": [
                {
                    "internalType": "uint256",
                    "name": "tokenId_",
                    "type": "uint256"
                }
            ],
            "name": "tokenURI",
            "outputs": [
                {
                    "internalType": "string",
                    "name": "",
                    "type": "string"
                }
            ],
            "stateMutability": "view",
            "type": "function"
        },
        {
            "inputs": [],
            "name": "totalSupply",
            "outputs": [
                {
                    "internalType": "uint256",
                    "name": "",
                    "type": "uint256"
                }
            ],
            "stateMutability": "view",
            "type": "function"
        },
        {
            "inputs": [
                {
                    "internalType": "address",
                    "name": "from",
                    "type": "address"
                },
                {
                    "internalType": "address",
                    "name": "to",
                    "type": "address"
                },
                {
                    "internalType": "uint256",
                    "name": "tokenId",
                    "type": "uint256"
                }
            ],
            "name": "transferFrom",
            "outputs": [],
            "stateMutability": "nonpayable",
            "type": "function"
        },
        {
            "inputs": [
                {
                    "internalType": "address",
                    "name": "newOwner",
                    "type": "address"
                }
            ],
            "name": "transferOwnership",
            "outputs": [],
            "stateMutability": "nonpayable",
            "type": "function"
        },
        {
            "inputs": [
                {
                    "internalType": "address",
                    "name": "",
                    "type": "address"
                }
            ],
            "name": "walletMints",
            "outputs": [
                {
                    "internalType": "uint256",
                    "name": "",
                    "type": "uint256"
                }
            ],
            "stateMutability": "view",
            "type": "function"
        },
        {
            "inputs": [],
            "name": "withdraw",
            "outputs": [],
            "stateMutability": "nonpayable",
            "type": "function"
        },
        {
            "inputs": [],
            "name": "withdrawWallet",
            "outputs": [
                {
                    "internalType": "address payable",
                    "name": "",
                    "type": "address"
                }
            ],
            "stateMutability": "view",
            "type": "function"
        }
    ],
    "bytecode": "0x60806040526040518060400160405280600981526020017f526f626f50756e6b7300000000000000000000000000000000000000000000008152506040518060400160405280600281526020017f5250000000000000000000000000000000000000000000000000000000000000815250816000908051906020019062000088929190620001bf565b508060019080519060200190620000a1929190620001bf565b505050620000c4620000b8620000f160201b60201c565b620000f960201b60201c565b66470de4df82000060078190555060006008819055506103e86009819055506003600a81905550620002d4565b600033905090565b6000600660009054906101000a900473ffffffffffffffffffffffffffffffffffffffff16905081600660006101000a81548173ffffffffffffffffffffffffffffffffffffffff021916908373ffffffffffffffffffffffffffffffffffffffff1602179055508173ffffffffffffffffffffffffffffffffffffffff168173ffffffffffffffffffffffffffffffffffffffff167f8be0079c531659141344cd1fd0a4f28419497f9722a3daafe3b4186f6b6457e060405160405180910390a35050565b828054620001cd906200029e565b90600052602060002090601f016020900481019282620001f157600085556200023d565b82601f106200020c57805160ff19168380011785556200023d565b828001600101855582156200023d579182015b828111156200023c5782518255916020019190600101906200021f565b5b5090506200024c919062000250565b5090565b5b808211156200026b57600081600090555060010162000251565b5090565b7f4e487b7100000000000000000000000000000000000000000000000000000000600052602260045260246000fd5b60006002820490506001821680620002b757607f821691505b60208210811415620002ce57620002cd6200026f565b5b50919050565b61344380620002e46000396000f3fe6080604052600436106101815760003560e01c806385d178f4116100d1578063c758b4581161008a578063dd487eba11610064578063dd487eba1461054f578063e985e9c514610578578063f0293fd3146105b5578063f2fde38b146105f257610181565b8063c758b458146104be578063c87b56dd146104e7578063d5abeb011461052457610181565b806385d178f4146103cf5780638da5cb5b146103fa57806395d89b4114610425578063a0712d6814610450578063a22cb4651461046c578063b88d4fde1461049557610181565b806323b872dd1161013e5780636352211e116101185780636352211e146103135780636817c76c1461035057806370a082311461037b578063715018a6146103b857610181565b806323b872dd146102aa5780633ccfd60b146102d357806342842e0e146102ea57610181565b80630116bc2d1461018657806301ffc9a7146101b157806306fdde03146101ee578063081812fc14610219578063095ea7b31461025657806318160ddd1461027f575b600080fd5b34801561019257600080fd5b5061019b61061b565b6040516101a89190611f2a565b60405180910390f35b3480156101bd57600080fd5b506101d860048036038101906101d39190611fb1565b61062e565b6040516101e59190611f2a565b60405180910390f35b3480156101fa57600080fd5b50610203610710565b6040516102109190612077565b60405180910390f35b34801561022557600080fd5b50610240600480360381019061023b91906120cf565b6107a2565b60405161024d919061213d565b60405180910390f35b34801561026257600080fd5b5061027d60048036038101906102789190612184565b6107e8565b005b34801561028b57600080fd5b50610294610900565b6040516102a191906121d3565b60405180910390f35b3480156102b657600080fd5b506102d160048036038101906102cc91906121ee565b610906565b005b3480156102df57600080fd5b506102e8610966565b005b3480156102f657600080fd5b50610311600480360381019061030c91906121ee565b610a3f565b005b34801561031f57600080fd5b5061033a600480360381019061033591906120cf565b610a5f565b604051610347919061213d565b60405180910390f35b34801561035c57600080fd5b50610365610b11565b60405161037291906121d3565b60405180910390f35b34801561038757600080fd5b506103a2600480360381019061039d9190612241565b610b17565b6040516103af91906121d3565b60405180910390f35b3480156103c457600080fd5b506103cd610bcf565b005b3480156103db57600080fd5b506103e4610be3565b6040516103f1919061228f565b60405180910390f35b34801561040657600080fd5b5061040f610c09565b60405161041c919061213d565b60405180910390f35b34801561043157600080fd5b5061043a610c33565b6040516104479190612077565b60405180910390f35b61046a600480360381019061046591906120cf565b610cc5565b005b34801561047857600080fd5b50610493600480360381019061048e91906122d6565b610e9c565b005b3480156104a157600080fd5b506104bc60048036038101906104b7919061244b565b610eb2565b005b3480156104ca57600080fd5b506104e560048036038101906104e091906124ce565b610f14565b005b3480156104f357600080fd5b5061050e600480360381019061050991906120cf565b610f39565b60405161051b9190612077565b60405180910390f35b34801561053057600080fd5b50610539610fb5565b60405161054691906121d3565b60405180910390f35b34801561055b57600080fd5b506105766004803603810190610571919061255b565b610fbb565b005b34801561058457600080fd5b5061059f600480360381019061059a91906125a8565b610fd9565b6040516105ac9190611f2a565b60405180910390f35b3480156105c157600080fd5b506105dc60048036038101906105d79190612241565b61106d565b6040516105e991906121d3565b60405180910390f35b3480156105fe57600080fd5b5061061960048036038101906106149190612241565b611085565b005b600b60009054906101000a900460ff1681565b60007f80ac58cd000000000000000000000000000000000000000000000000000000007bffffffffffffffffffffffffffffffffffffffffffffffffffffffff1916827bffffffffffffffffffffffffffffffffffffffffffffffffffffffff191614806106f957507f5b5e139f000000000000000000000000000000000000000000000000000000007bffffffffffffffffffffffffffffffffffffffffffffffffffffffff1916827bffffffffffffffffffffffffffffffffffffffffffffffffffffffff1916145b80610709575061070882611109565b5b9050919050565b60606000805461071f90612617565b80601f016020809104026020016040519081016040528092919081815260200182805461074b90612617565b80156107985780601f1061076d57610100808354040283529160200191610798565b820191906000526020600020905b81548152906001019060200180831161077b57829003601f168201915b5050505050905090565b60006107ad82611173565b6004600083815260200190815260200160002060009054906101000a900473ffffffffffffffffffffffffffffffffffffffff169050919050565b60006107f382610a5f565b90508073ffffffffffffffffffffffffffffffffffffffff168373ffffffffffffffffffffffffffffffffffffffff161415610864576040517f08c379a000000000000000000000000000000000000000000000000000000000815260040161085b906126bb565b60405180910390fd5b8073ffffffffffffffffffffffffffffffffffffffff166108836111be565b73ffffffffffffffffffffffffffffffffffffffff1614806108b257506108b1816108ac6111be565b610fd9565b5b6108f1576040517f08c379a00000000000000000000000000000000000000000000000000000000081526004016108e89061274d565b60405180910390fd5b6108fb83836111c6565b505050565b60085481565b6109176109116111be565b8261127f565b610956576040517f08c379a000000000000000000000000000000000000000000000000000000000815260040161094d906127df565b60405180910390fd5b610961838383611314565b505050565b61096e61157b565b6000600d60009054906101000a900473ffffffffffffffffffffffffffffffffffffffff1673ffffffffffffffffffffffffffffffffffffffff16476040516109b690612830565b60006040518083038185875af1925050503d80600081146109f3576040519150601f19603f3d011682016040523d82523d6000602084013e6109f8565b606091505b5050905080610a3c576040517f08c379a0000000000000000000000000000000000000000000000000000000008152600401610a3390612891565b60405180910390fd5b50565b610a5a83838360405180602001604052806000815250610eb2565b505050565b6000806002600084815260200190815260200160002060009054906101000a900473ffffffffffffffffffffffffffffffffffffffff169050600073ffffffffffffffffffffffffffffffffffffffff168173ffffffffffffffffffffffffffffffffffffffff161415610b08576040517f08c379a0000000000000000000000000000000000000000000000000000000008152600401610aff906128fd565b60405180910390fd5b80915050919050565b60075481565b60008073ffffffffffffffffffffffffffffffffffffffff168273ffffffffffffffffffffffffffffffffffffffff161415610b88576040517f08c379a0000000000000000000000000000000000000000000000000000000008152600401610b7f9061298f565b60405180910390fd5b600360008373ffffffffffffffffffffffffffffffffffffffff1673ffffffffffffffffffffffffffffffffffffffff168152602001908152602001600020549050919050565b610bd761157b565b610be160006115f9565b565b600d60009054906101000a900473ffffffffffffffffffffffffffffffffffffffff1681565b6000600660009054906101000a900473ffffffffffffffffffffffffffffffffffffffff16905090565b606060018054610c4290612617565b80601f0160208091040260200160405190810160405280929190818152602001828054610c6e90612617565b8015610cbb5780601f10610c9057610100808354040283529160200191610cbb565b820191906000526020600020905b815481529060010190602001808311610c9e57829003601f168201915b5050505050905090565b600b60009054906101000a900460ff16610d14576040517f08c379a0000000000000000000000000000000000000000000000000000000008152600401610d0b906129fb565b60405180910390fd5b60075481610d229190612a4a565b3414610d63576040517f08c379a0000000000000000000000000000000000000000000000000000000008152600401610d5a90612af0565b60405180910390fd5b60095481600854610d749190612b10565b1115610db5576040517f08c379a0000000000000000000000000000000000000000000000000000000008152600401610dac90612bb2565b60405180910390fd5b600a5481600e60003373ffffffffffffffffffffffffffffffffffffffff1673ffffffffffffffffffffffffffffffffffffffff16815260200190815260200160002054610e039190612b10565b1115610e44576040517f08c379a0000000000000000000000000000000000000000000000000000000008152600401610e3b90612c1e565b60405180910390fd5b60005b81811015610e985760006001600854610e609190612b10565b905060086000815480929190610e7590612c3e565b9190505550610e8433826116bf565b508080610e9090612c3e565b915050610e47565b5050565b610eae610ea76111be565b83836116dd565b5050565b610ec3610ebd6111be565b8361127f565b610f02576040517f08c379a0000000000000000000000000000000000000000000000000000000008152600401610ef9906127df565b60405180910390fd5b610f0e8484848461184a565b50505050565b610f1c61157b565b80600b60006101000a81548160ff02191690831515021790555050565b6060610f44826118a6565b610f83576040517f08c379a0000000000000000000000000000000000000000000000000000000008152600401610f7a90612cd3565b60405180910390fd5b600c610f8e83611912565b604051602001610f9f929190612e0f565b6040516020818303038152906040529050919050565b60095481565b610fc361157b565b8181600c9190610fd4929190611e6c565b505050565b6000600560008473ffffffffffffffffffffffffffffffffffffffff1673ffffffffffffffffffffffffffffffffffffffff16815260200190815260200160002060008373ffffffffffffffffffffffffffffffffffffffff1673ffffffffffffffffffffffffffffffffffffffff16815260200190815260200160002060009054906101000a900460ff16905092915050565b600e6020528060005260406000206000915090505481565b61108d61157b565b600073ffffffffffffffffffffffffffffffffffffffff168173ffffffffffffffffffffffffffffffffffffffff1614156110fd576040517f08c379a00000000000000000000000000000000000000000000000000000000081526004016110f490612eb0565b60405180910390fd5b611106816115f9565b50565b60007f01ffc9a7000000000000000000000000000000000000000000000000000000007bffffffffffffffffffffffffffffffffffffffffffffffffffffffff1916827bffffffffffffffffffffffffffffffffffffffffffffffffffffffff1916149050919050565b61117c816118a6565b6111bb576040517f08c379a00000000000000000000000000000000000000000000000000000000081526004016111b2906128fd565b60405180910390fd5b50565b600033905090565b816004600083815260200190815260200160002060006101000a81548173ffffffffffffffffffffffffffffffffffffffff021916908373ffffffffffffffffffffffffffffffffffffffff160217905550808273ffffffffffffffffffffffffffffffffffffffff1661123983610a5f565b73ffffffffffffffffffffffffffffffffffffffff167f8c5be1e5ebec7d5bd14f71427d1e84f3dd0314c0f7b2291e5b200ac8c7c3b92560405160405180910390a45050565b60008061128b83610a5f565b90508073ffffffffffffffffffffffffffffffffffffffff168473ffffffffffffffffffffffffffffffffffffffff1614806112cd57506112cc8185610fd9565b5b8061130b57508373ffffffffffffffffffffffffffffffffffffffff166112f3846107a2565b73ffffffffffffffffffffffffffffffffffffffff16145b91505092915050565b8273ffffffffffffffffffffffffffffffffffffffff1661133482610a5f565b73ffffffffffffffffffffffffffffffffffffffff161461138a576040517f08c379a000000000000000000000000000000000000000000000000000000000815260040161138190612f42565b60405180910390fd5b600073ffffffffffffffffffffffffffffffffffffffff168273ffffffffffffffffffffffffffffffffffffffff1614156113fa576040517f08c379a00000000000000000000000000000000000000000000000000000000081526004016113f190612fd4565b60405180910390fd5b611405838383611a73565b6114106000826111c6565b6001600360008573ffffffffffffffffffffffffffffffffffffffff1673ffffffffffffffffffffffffffffffffffffffff16815260200190815260200160002060008282546114609190612ff4565b925050819055506001600360008473ffffffffffffffffffffffffffffffffffffffff1673ffffffffffffffffffffffffffffffffffffffff16815260200190815260200160002060008282546114b79190612b10565b92505081905550816002600083815260200190815260200160002060006101000a81548173ffffffffffffffffffffffffffffffffffffffff021916908373ffffffffffffffffffffffffffffffffffffffff160217905550808273ffffffffffffffffffffffffffffffffffffffff168473ffffffffffffffffffffffffffffffffffffffff167fddf252ad1be2c89b69c2b068fc378daa952ba7f163c4a11628f55a4df523b3ef60405160405180910390a4611576838383611a78565b505050565b6115836111be565b73ffffffffffffffffffffffffffffffffffffffff166115a1610c09565b73ffffffffffffffffffffffffffffffffffffffff16146115f7576040517f08c379a00000000000000000000000000000000000000000000000000000000081526004016115ee90613074565b60405180910390fd5b565b6000600660009054906101000a900473ffffffffffffffffffffffffffffffffffffffff16905081600660006101000a81548173ffffffffffffffffffffffffffffffffffffffff021916908373ffffffffffffffffffffffffffffffffffffffff1602179055508173ffffffffffffffffffffffffffffffffffffffff168173ffffffffffffffffffffffffffffffffffffffff167f8be0079c531659141344cd1fd0a4f28419497f9722a3daafe3b4186f6b6457e060405160405180910390a35050565b6116d9828260405180602001604052806000815250611a7d565b5050565b8173ffffffffffffffffffffffffffffffffffffffff168373ffffffffffffffffffffffffffffffffffffffff16141561174c576040517f08c379a0000000000000000000000000000000000000000000000000000000008152600401611743906130e0565b60405180910390fd5b80600560008573ffffffffffffffffffffffffffffffffffffffff1673ffffffffffffffffffffffffffffffffffffffff16815260200190815260200160002060008473ffffffffffffffffffffffffffffffffffffffff1673ffffffffffffffffffffffffffffffffffffffff16815260200190815260200160002060006101000a81548160ff0219169083151502179055508173ffffffffffffffffffffffffffffffffffffffff168373ffffffffffffffffffffffffffffffffffffffff167f17307eab39ab6107e8899845ad3d59bd9653f200f220920489ca2b5937696c318360405161183d9190611f2a565b60405180910390a3505050565b611855848484611314565b61186184848484611ad8565b6118a0576040517f08c379a000000000000000000000000000000000000000000000000000000000815260040161189790613172565b60405180910390fd5b50505050565b60008073ffffffffffffffffffffffffffffffffffffffff166002600084815260200190815260200160002060009054906101000a900473ffffffffffffffffffffffffffffffffffffffff1673ffffffffffffffffffffffffffffffffffffffff1614159050919050565b6060600082141561195a576040518060400160405280600181526020017f30000000000000000000000000000000000000000000000000000000000000008152509050611a6e565b600082905060005b6000821461198c57808061197590612c3e565b915050600a8261198591906131c1565b9150611962565b60008167ffffffffffffffff8111156119a8576119a7612320565b5b6040519080825280601f01601f1916602001820160405280156119da5781602001600182028036833780820191505090505b5090505b60008514611a67576001826119f39190612ff4565b9150600a85611a0291906131f2565b6030611a0e9190612b10565b60f81b818381518110611a2457611a23613223565b5b60200101907effffffffffffffffffffffffffffffffffffffffffffffffffffffffffffff1916908160001a905350600a85611a6091906131c1565b94506119de565b8093505050505b919050565b505050565b505050565b611a878383611c6f565b611a946000848484611ad8565b611ad3576040517f08c379a0000000000000000000000000000000000000000000000000000000008152600401611aca90613172565b60405180910390fd5b505050565b6000611af98473ffffffffffffffffffffffffffffffffffffffff16611e49565b15611c62578373ffffffffffffffffffffffffffffffffffffffff1663150b7a02611b226111be565b8786866040518563ffffffff1660e01b8152600401611b4494939291906132a7565b602060405180830381600087803b158015611b5e57600080fd5b505af1925050508015611b8f57506040513d601f19601f82011682018060405250810190611b8c9190613308565b60015b611c12573d8060008114611bbf576040519150601f19603f3d011682016040523d82523d6000602084013e611bc4565b606091505b50600081511415611c0a576040517f08c379a0000000000000000000000000000000000000000000000000000000008152600401611c0190613172565b60405180910390fd5b805181602001fd5b63150b7a0260e01b7bffffffffffffffffffffffffffffffffffffffffffffffffffffffff1916817bffffffffffffffffffffffffffffffffffffffffffffffffffffffff191614915050611c67565b600190505b949350505050565b600073ffffffffffffffffffffffffffffffffffffffff168273ffffffffffffffffffffffffffffffffffffffff161415611cdf576040517f08c379a0000000000000000000000000000000000000000000000000000000008152600401611cd690613381565b60405180910390fd5b611ce8816118a6565b15611d28576040517f08c379a0000000000000000000000000000000000000000000000000000000008152600401611d1f906133ed565b60405180910390fd5b611d3460008383611a73565b6001600360008473ffffffffffffffffffffffffffffffffffffffff1673ffffffffffffffffffffffffffffffffffffffff1681526020019081526020016000206000828254611d849190612b10565b92505081905550816002600083815260200190815260200160002060006101000a81548173ffffffffffffffffffffffffffffffffffffffff021916908373ffffffffffffffffffffffffffffffffffffffff160217905550808273ffffffffffffffffffffffffffffffffffffffff16600073ffffffffffffffffffffffffffffffffffffffff167fddf252ad1be2c89b69c2b068fc378daa952ba7f163c4a11628f55a4df523b3ef60405160405180910390a4611e4560008383611a78565b5050565b6000808273ffffffffffffffffffffffffffffffffffffffff163b119050919050565b828054611e7890612617565b90600052602060002090601f016020900481019282611e9a5760008555611ee1565b82601f10611eb357803560ff1916838001178555611ee1565b82800160010185558215611ee1579182015b82811115611ee0578235825591602001919060010190611ec5565b5b509050611eee9190611ef2565b5090565b5b80821115611f0b576000816000905550600101611ef3565b5090565b60008115159050919050565b611f2481611f0f565b82525050565b6000602082019050611f3f6000830184611f1b565b92915050565b6000604051905090565b600080fd5b600080fd5b60007fffffffff0000000000000000000000000000000000000000000000000000000082169050919050565b611f8e81611f59565b8114611f9957600080fd5b50565b600081359050611fab81611f85565b92915050565b600060208284031215611fc757611fc6611f4f565b5b6000611fd584828501611f9c565b91505092915050565b600081519050919050565b600082825260208201905092915050565b60005b83811015612018578082015181840152602081019050611ffd565b83811115612027576000848401525b50505050565b6000601f19601f8301169050919050565b600061204982611fde565b6120538185611fe9565b9350612063818560208601611ffa565b61206c8161202d565b840191505092915050565b60006020820190508181036000830152612091818461203e565b905092915050565b6000819050919050565b6120ac81612099565b81146120b757600080fd5b50565b6000813590506120c9816120a3565b92915050565b6000602082840312156120e5576120e4611f4f565b5b60006120f3848285016120ba565b91505092915050565b600073ffffffffffffffffffffffffffffffffffffffff82169050919050565b6000612127826120fc565b9050919050565b6121378161211c565b82525050565b6000602082019050612152600083018461212e565b92915050565b6121618161211c565b811461216c57600080fd5b50565b60008135905061217e81612158565b92915050565b6000806040838503121561219b5761219a611f4f565b5b60006121a98582860161216f565b92505060206121ba858286016120ba565b9150509250929050565b6121cd81612099565b82525050565b60006020820190506121e860008301846121c4565b92915050565b60008060006060848603121561220757612206611f4f565b5b60006122158682870161216f565b93505060206122268682870161216f565b9250506040612237868287016120ba565b9150509250925092565b60006020828403121561225757612256611f4f565b5b60006122658482850161216f565b91505092915050565b6000612279826120fc565b9050919050565b6122898161226e565b82525050565b60006020820190506122a46000830184612280565b92915050565b6122b381611f0f565b81146122be57600080fd5b50565b6000813590506122d0816122aa565b92915050565b600080604083850312156122ed576122ec611f4f565b5b60006122fb8582860161216f565b925050602061230c858286016122c1565b9150509250929050565b600080fd5b600080fd5b7f4e487b7100000000000000000000000000000000000000000000000000000000600052604160045260246000fd5b6123588261202d565b810181811067ffffffffffffffff8211171561237757612376612320565b5b80604052505050565b600061238a611f45565b9050612396828261234f565b919050565b600067ffffffffffffffff8211156123b6576123b5612320565b5b6123bf8261202d565b9050602081019050919050565b82818337600083830152505050565b60006123ee6123e98461239b565b612380565b90508281526020810184848401111561240a5761240961231b565b5b6124158482856123cc565b509392505050565b600082601f83011261243257612431612316565b5b81356124428482602086016123db565b91505092915050565b6000806000806080858703121561246557612464611f4f565b5b60006124738782880161216f565b94505060206124848782880161216f565b9350506040612495878288016120ba565b925050606085013567ffffffffffffffff8111156124b6576124b5611f54565b5b6124c28782880161241d565b91505092959194509250565b6000602082840312156124e4576124e3611f4f565b5b60006124f2848285016122c1565b91505092915050565b600080fd5b600080fd5b60008083601f84011261251b5761251a612316565b5b8235905067ffffffffffffffff811115612538576125376124fb565b5b60208301915083600182028301111561255457612553612500565b5b9250929050565b6000806020838503121561257257612571611f4f565b5b600083013567ffffffffffffffff8111156125905761258f611f54565b5b61259c85828601612505565b92509250509250929050565b600080604083850312156125bf576125be611f4f565b5b60006125cd8582860161216f565b92505060206125de8582860161216f565b9150509250929050565b7f4e487b7100000000000000000000000000000000000000000000000000000000600052602260045260246000fd5b6000600282049050600182168061262f57607f821691505b60208210811415612643576126426125e8565b5b50919050565b7f4552433732313a20617070726f76616c20746f2063757272656e74206f776e6560008201527f7200000000000000000000000000000000000000000000000000000000000000602082015250565b60006126a5602183611fe9565b91506126b082612649565b604082019050919050565b600060208201905081810360008301526126d481612698565b9050919050565b7f4552433732313a20617070726f76652063616c6c6572206973206e6f7420746f60008201527f6b656e206f776e6572206e6f7220617070726f76656420666f7220616c6c0000602082015250565b6000612737603e83611fe9565b9150612742826126db565b604082019050919050565b600060208201905081810360008301526127668161272a565b9050919050565b7f4552433732313a2063616c6c6572206973206e6f7420746f6b656e206f776e6560008201527f72206e6f7220617070726f766564000000000000000000000000000000000000602082015250565b60006127c9602e83611fe9565b91506127d48261276d565b604082019050919050565b600060208201905081810360008301526127f8816127bc565b9050919050565b600081905092915050565b50565b600061281a6000836127ff565b91506128258261280a565b600082019050919050565b600061283b8261280d565b9150819050919050565b7f7769746864726177206661696c65642100000000000000000000000000000000600082015250565b600061287b601083611fe9565b915061288682612845565b602082019050919050565b600060208201905081810360008301526128aa8161286e565b9050919050565b7f4552433732313a20696e76616c696420746f6b656e2049440000000000000000600082015250565b60006128e7601883611fe9565b91506128f2826128b1565b602082019050919050565b60006020820190508181036000830152612916816128da565b9050919050565b7f4552433732313a2061646472657373207a65726f206973206e6f74206120766160008201527f6c6964206f776e65720000000000000000000000000000000000000000000000602082015250565b6000612979602983611fe9565b91506129848261291d565b604082019050919050565b600060208201905081810360008301526129a88161296c565b9050919050565b7f6d696e74696e67206e6f7420656e61626c656421000000000000000000000000600082015250565b60006129e5601483611fe9565b91506129f0826129af565b602082019050919050565b60006020820190508181036000830152612a14816129d8565b9050919050565b7f4e487b7100000000000000000000000000000000000000000000000000000000600052601160045260246000fd5b6000612a5582612099565b9150612a6083612099565b9250817fffffffffffffffffffffffffffffffffffffffffffffffffffffffffffffffff0483118215151615612a9957612a98612a1b565b5b828202905092915050565b7f77726f6e67206d696e742076616c756500000000000000000000000000000000600082015250565b6000612ada601083611fe9565b9150612ae582612aa4565b602082019050919050565b60006020820190508181036000830152612b0981612acd565b9050919050565b6000612b1b82612099565b9150612b2683612099565b9250827fffffffffffffffffffffffffffffffffffffffffffffffffffffffffffffffff03821115612b5b57612b5a612a1b565b5b828201905092915050565b7f536f6c64206f7574210000000000000000000000000000000000000000000000600082015250565b6000612b9c600983611fe9565b9150612ba782612b66565b602082019050919050565b60006020820190508181036000830152612bcb81612b8f565b9050919050565b7f657863656564206d61782077616c6c6574000000000000000000000000000000600082015250565b6000612c08601183611fe9565b9150612c1382612bd2565b602082019050919050565b60006020820190508181036000830152612c3781612bfb565b9050919050565b6000612c4982612099565b91507fffffffffffffffffffffffffffffffffffffffffffffffffffffffffffffffff821415612c7c57612c7b612a1b565b5b600182019050919050565b7f546f6b656e20646f6573206e6f74206578697374210000000000000000000000600082015250565b6000612cbd601583611fe9565b9150612cc882612c87565b602082019050919050565b60006020820190508181036000830152612cec81612cb0565b9050919050565b600081905092915050565b60008190508160005260206000209050919050565b60008154612d2081612617565b612d2a8186612cf3565b94506001821660008114612d455760018114612d5657612d89565b60ff19831686528186019350612d89565b612d5f85612cfe565b60005b83811015612d8157815481890152600182019150602081019050612d62565b838801955050505b50505092915050565b6000612d9d82611fde565b612da78185612cf3565b9350612db7818560208601611ffa565b80840191505092915050565b7f2e6a736f6e000000000000000000000000000000000000000000000000000000600082015250565b6000612df9600583612cf3565b9150612e0482612dc3565b600582019050919050565b6000612e1b8285612d13565b9150612e278284612d92565b9150612e3282612dec565b91508190509392505050565b7f4f776e61626c653a206e6577206f776e657220697320746865207a65726f206160008201527f6464726573730000000000000000000000000000000000000000000000000000602082015250565b6000612e9a602683611fe9565b9150612ea582612e3e565b604082019050919050565b60006020820190508181036000830152612ec981612e8d565b9050919050565b7f4552433732313a207472616e736665722066726f6d20696e636f72726563742060008201527f6f776e6572000000000000000000000000000000000000000000000000000000602082015250565b6000612f2c602583611fe9565b9150612f3782612ed0565b604082019050919050565b60006020820190508181036000830152612f5b81612f1f565b9050919050565b7f4552433732313a207472616e7366657220746f20746865207a65726f2061646460008201527f7265737300000000000000000000000000000000000000000000000000000000602082015250565b6000612fbe602483611fe9565b9150612fc982612f62565b604082019050919050565b60006020820190508181036000830152612fed81612fb1565b9050919050565b6000612fff82612099565b915061300a83612099565b92508282101561301d5761301c612a1b565b5b828203905092915050565b7f4f776e61626c653a2063616c6c6572206973206e6f7420746865206f776e6572600082015250565b600061305e602083611fe9565b915061306982613028565b602082019050919050565b6000602082019050818103600083015261308d81613051565b9050919050565b7f4552433732313a20617070726f766520746f2063616c6c657200000000000000600082015250565b60006130ca601983611fe9565b91506130d582613094565b602082019050919050565b600060208201905081810360008301526130f9816130bd565b9050919050565b7f4552433732313a207472616e7366657220746f206e6f6e20455243373231526560008201527f63656976657220696d706c656d656e7465720000000000000000000000000000602082015250565b600061315c603283611fe9565b915061316782613100565b604082019050919050565b6000602082019050818103600083015261318b8161314f565b9050919050565b7f4e487b7100000000000000000000000000000000000000000000000000000000600052601260045260246000fd5b60006131cc82612099565b91506131d783612099565b9250826131e7576131e6613192565b5b828204905092915050565b60006131fd82612099565b915061320883612099565b92508261321857613217613192565b5b828206905092915050565b7f4e487b7100000000000000000000000000000000000000000000000000000000600052603260045260246000fd5b600081519050919050565b600082825260208201905092915050565b600061327982613252565b613283818561325d565b9350613293818560208601611ffa565b61329c8161202d565b840191505092915050565b60006080820190506132bc600083018761212e565b6132c9602083018661212e565b6132d660408301856121c4565b81810360608301526132e8818461326e565b905095945050505050565b60008151905061330281611f85565b92915050565b60006020828403121561331e5761331d611f4f565b5b600061332c848285016132f3565b91505092915050565b7f4552433732313a206d696e7420746f20746865207a65726f2061646472657373600082015250565b600061336b602083611fe9565b915061337682613335565b602082019050919050565b6000602082019050818103600083015261339a8161335e565b9050919050565b7f4552433732313a20746f6b656e20616c7265616479206d696e74656400000000600082015250565b60006133d7601c83611fe9565b91506133e2826133a1565b602082019050919050565b60006020820190508181036000830152613406816133ca565b905091905056fea2646970667358221220ec62ff3211336c535d303d2e135ce3da85838d44593536c4ce9d20075c0877f264736f6c63430008090033",
    "linkReferences": {},
    "deployedLinkReferences": {}
}